:100000000020001019010000A5010000A50100005A
:1000100000000000000000000000000000000000E0
:10002000000000000000000000000000A50100002A
:100030000000000000000000A5010000A501000074
:10004000A5010000A5010000A5010000A501000018
:10005000A5010000A5010000A5010000A501000008
:10006000A5010000A5010000A5010000A5010000F8
:10007000A5010000A5010000A5010000A5010000E8
:10008000410A0000A5010000A5010000A501000033
:10009000A5010000A5010000A5010000A5010000C8
:1000A000A5010000A5010000A5010000A5010000B8
:1000B000A5010000A5010000A5010000A5010000A8
:1000C00080B500AF00F028F8BD4680BD80B500AF18
:1000D0000B4B00221A600B4B23221A600A4B0A4A70
:1000E000126880218A431A60084B01221A60084B6B
:1000F00003221A60074B01221A60BD4680BDC0462C
:100100004080044008800440388204404480044019
:10011000708004407480044080B584B000AF1C4BF4
:10012000FB601C4BBB601C4A1A4BD31A7B6009E076
:10013000FB681A78BB681A70BB680133BB60FB6848
:100140000133FB607B685A1E9341DBB27A68013A47
:100150007A60002BECD1114BBB60114A0F4BD31AC4
:100160007B6005E0BB6800221A70BB680133BB608E
:100170007B685A1E9341DBB27A68013A7A60002BA1
:10018000F0D1FFF7A3FF00F075FDBD4604B080BDC0
:1001900048100000000000100000001000000010D7
:1001A000FC00001080B500AFFEE7C04680B584B00B
:1001B00000AF3B1D186059609A603B1D9B68002B87
:1001C00009D13B1D5B683A1D526811683A1D1268DF
:1001D0000A431A6009E03B1D5B683A1D52681168CA
:1001E0003A1D1268D2430A401A60C046BD4604B0A8
:1001F00080BDC04680B584B000AF3B1D186059601B
:100200009A603B1D9B68002B0AD13B1D5B683A1D21
:10021000526811683A1D1268D2430A401A6008E019
:100220003B1D5B683A1D526811683A1D12680A430B
:100230001A60C046BD4604B080BDC04680B582B0DD
:1002400000AF786039603B68002B48DD7B689B6BB2
:10025000072B3CD89A00484BD3181B689F467B68F5
:10026000D86819695A69FFF7A1FF30E07B68186800
:1002700059689A68FFF7BEFF29E07B689869D969D9
:100280001A6AFFF793FF22E07B68D86819695A69F8
:10029000FFF7B0FF1BE07B68586A996ADA6AFFF7DC
:1002A00085FF14E07B689869D9691A6AFFF7A2FF95
:1002B0000DE07B68186859689A68FFF777FF06E0D9
:1002C0007B68586A996ADA6AFFF794FFC0467B68D0
:1002D0009B6B5A1C07231A407B689A6347E07B6834
:1002E0009B6B072B3CD89A00244BD3181B689F4666
:1002F0007B68586A996ADA6AFFF758FF30E07B68D2
:10030000D86819695A69FFF775FF29E07B68186892
:1003100059689A68FFF74AFF22E07B689869D969B3
:100320001A6AFFF767FF1BE07B68D86819695A698A
:10033000FFF73CFF14E07B68586A996ADA6AFFF7B6
:1003400059FF0DE07B689869D9691A6AFFF72EFF9B
:1003500006E07B68186859689A68FFF74BFFC0464B
:100360007B689B6BDA1D07231A407B689A63C04643
:10037000BD4602B080BDC046700F0000900F000067
:1003800080B584B000AFF860B9607A6000F09EF983
:10039000FB68181C00F00CF8BB68181C00F090F803
:1003A0007B68181C00F008F9C046BD4604B080BD4B
:1003B00080B582B000AF7860364B00221A60364BB1
:1003C00000221A60354B00221A60354B00221A6059
:1003D000344B344A1268C0210A431A60324B324A05
:1003E0001268802189000A431A60304B2F4A126834
:1003F00020210A431A607B6820221A607B682C4AFD
:100400005A607B684022DA607B682A4A1A617B68FE
:1004100080229A617B68274ADA617B688022920099
:100420005A627B68244A9A627B68244A1A637B6812
:10043000C82252005A637B6800229A637B680022BC
:100440009A607B6800225A617B6800221A627B688E
:100450000022DA627B68186859689A68FFF7A6FE7E
:100460007B68D86819695A69FFF7C4FE7B68986988
:10047000D9691A6AFFF7BEFE7B68586A996ADA6A18
:10048000FFF7B8FE7B680022DA63C046BD4602B0C3
:1004900080BDC046484004404C40044050400440A9
:1004A00054400440008000500080025000800350FF
:1004B000FC3F0350FC3F0050FC3F02503C55000005
:1004C00080B582B000AF7860324B00221A60324BA8
:1004D00000221A60314B00221A60314B00221A6050
:1004E000304B304A126838210A431A602E4B2E4A8C
:1004F000126802210A431A607B6802221A607B6834
:100500002A4A5A607B680822DA607B68284A1A61A6
:100510007B6810229A617B68254ADA617B68202219
:100520005A627B68224A9A627B68224A1A637B6815
:10053000C82292005A637B6800229A637B6800227B
:100540009A607B6800225A617B6800221A627B688D
:100550000022DA627B68186859689A68FFF726FEFD
:100560007B68D86819695A69FFF744FE7B68986907
:10057000D9691A6AFFF73EFE7B68586A996ADA6A97
:10058000FFF738FE7B680022DA63C046BD4602B042
:1005900080BDC046284004402C4004403040044008
:1005A000344004400080005000800250FC3F025064
:1005B000FC3F00500852000080B582B000AF786068
:1005C000374B00221A60374B00221A60364B00224C
:1005D0001A60364B00221A60354B354A12680421E6
:1005E0000A431A60334B334A1268802149000A4398
:1005F0001A60314B304A1268C02149000A431A6020
:100600007B68802252001A607B682C4A5A607B68A3
:100610000422DA607B682A4A1A617B6880229A6128
:100620007B68284ADA617B68802252005A627B68C4
:10063000244A9A627B68244A1A637B68C822920023
:100640005A637B6800229A637B6800229A607B6809
:1006500000225A617B6800221A627B680022DA62FB
:100660007B68186859689A68FFF7A0FD7B68D868AE
:1006700019695A69FFF7BEFD7B689869D9691A6ADA
:10068000FFF7B8FD7B68586A996ADA6AFFF7B2FD2E
:100690007B680022DA63C046BD4602B080BDC0461A
:1006A000144004401C4004402040044024400440C6
:1006B000008000500080015000800250FC3F01503B
:1006C000FC3F0050FC3F02508813000080B500AF93
:1006D0000F4B0F4A126880210A431A600D4B1422F7
:1006E0001A600D4B03221A600C4B0D4A1A600D4B19
:1006F00000221A600C4B00221A600C4B02221A6076
:100700000B4B802252021A60C046BD4680BDC046D7
:10071000808004400CC0004014C0004018C000405D
:100720003C55000028C0004070C0004004C000409C
:1007300000E100E080B500AF024B01221A60C04624
:10074000BD4680BD04C0004080B500AF024B022210
:100750001A60C046BD4680BD04C0004080B500AFF1
:10076000094B094A1268802109010A431A60074BA4
:1007700000221A60064B064A1268802109010A43CA
:100780001A60C046BD4680BD0080025070400440E3
:10079000FC3F025080B500AF114B114A1268802116
:1007A00049020A431A600F4B0E4A12688021090160
:1007B0000A431A600C4B0C4A126807218A431A60DC
:1007C000094B094A126801210A431A60074B074A7C
:1007D0001268802109010A431A60C046BD4680BDE7
:1007E000808004400080005074400440FC3F005072
:1007F00080B500AF1E4B1E4A12681E490A431A609C
:100800001D4B1D4A126807218A431A601A4B1A4A67
:10081000126801210A431A60184B184A126807210E
:100820008A431A60154B154A126801210A431A605F
:100830000F4B0F4A1268802149010A431A60104B7E
:1008400004221A600F4B83221A600F4B04221A6095
:100850000E4B85221A600E4B00221A60094B0322B0
:100860001A600C4B07221A60C046BD4680BDC046C8
:100870008080044040000100A4400440A84004409F
:10088000988004400C800040008000402880004098
:10089000048000400880004080B584B000AFF8605C
:1008A000B9607A60094BFA68126B1A60084BBA6833
:1008B0001A60084B7A681A60074BFA681A60FFF7EB
:1008C00039FFC046BD4604B080BDC04618C00040D8
:1008D00008000010040000100000001080B500AFF8
:1008E000C046034B1B68002BFBD1C046BD4680BDF4
:1008F0000000001080B500AF044B00221A60044BCA
:1009000000221A60C046BD4680BDC04608000010E7
:100910000000001080B582B000AF7860184B002254
:100920001A60184B174A1268802149000A431A605E
:100930007B68802252001A607B68134A5A607B6889
:1009400000229A607B68186859689A68FFF72EFC45
:100950000E4B08221A600B4B0A4A11680C4A0A40D7
:100960001A607B6880229200DA607B68064A1A610E
:100970007B6800225A61C046BD4602B080BDC046B9
:100980006040044000800050FC3F00506440044040
:10099000FFFDFFFF80B582B000AF7860184B0122E9
:1009A0001A60184B174A12688021C9000A431A605E
:1009B0007B688022D2001A607B68134A5A607B6889
:1009C00000229A607B68186859689A68FFF7EEFB06
:1009D0000E4B88221A600E4B0D4A11680D4A0A40D0
:1009E0001A607B688022D200DA607B680A4A1A614A
:1009F0007B6800225A61C046BD4602B080BDC04639
:100A00006840044000800050FC3F00506C400440AF
:100A100000800150FFFBFFFFFC3F015080B582B01A
:100A200000AF78607B681B691A687B68DB681340DD
:100A30005A1E9341DBB2181CBD4602B080BDC046B1
:100A400080B500AF244B1B68002B05D1FFF77CFE5F
:100A5000224B00221A6038E0204B1A68204B1B689A
:100A6000101C191CFFF7EAFB1B4B1B685A1E1A4B84
:100A70001A601A4B1B68DB6B002B0BD1184B1B68E1
:100A8000002B07DA154B1B68144A1268526B013AA7
:100A9000DA631AE0114B1B68DA6B104B1B685B6B57
:100AA000013B9A4208D10E4B1B68002B04DD0B4B17
:100AB0001B680022DA6308E0084B1B68074A1268CB
:100AC000D16B074A12688A18DA63064B01221A6052
:100AD000C046BD4680BDC0460800001000000010A2
:100AE0000400001000C0004080B586B000AF786000
:100AF00000237B6115E000233B610CE00023FB60D9
:100B000002E0FB680133FB60FA680A4B9A42F8DDA9
:100B10003B6901333B613B69092BEFDD7B690133A5
:100B20007B617B691A1C7B689A42E4D3BD4606B0A0
:100B300080BDC0461F4E000080B500AF044B044A84
:100B40001168044A0A401A60C046BD4680BDC046CE
:100B5000FC3F0250FFF7FFFF80B500AF044B044A93
:100B60001268802109010A431A60C046BD4680BD53
:100B7000FC3F025080B582B000AFFFF7EDFFC046EA
:100B80000B4B1A6801231340FAD00A4B1A68FB1D5D
:100B90001A700420FFF7A8FF064BFA1D12781A609E
:100BA000FFF7CAFFFB1D1B78181CBD4602B080BDB5
:100BB000148000400080004080B500AF0E490F4A0D
:100BC0000F4B081C111C1A1CFFF7DAFB0D4B0022FF
:100BD0001A600D4B00221A60FFF7C0FDFFF7DAFD27
:100BE000FFF706FE094B181CFFF794FE084B181C74
:100BF000FFF7D0FEBD4680BD4C000010A4000010E1
:100C00000C00001000000010080000108C00001004
:100C1000E400001080B586B000AFF860B9607A607B
:100C2000BA687B689A4220D0BA687B689A4206D23A
:100C30007A68BB68D31A7B6101233B6106E0BA681E
:100C40007B68D31A7B6101235B423B61F9687A6957
:100C50003B69081C111C1A1CFFF71EFEFFF73EFE25
:100C6000FB687A68DA63C04600E0C046BD4606B05D
:100C700080BDC04690B589B000AFFFF79DFFFFF77C
:100C80005BFF8C4B181C02210122FFF705FEFFF7CA
:100C900025FE884B96225200DA6396235B00FB61A7
:100CA0000123BB6100E0C0463C1C0F34FFF762FF2C
:100CB000031C23703B1C0F331B78303B252BF2D8D1
:100CC0009A007D4BD3181B689F467A4AFB69101C1B
:100CD000191CC822FFF79EFFFFF700FEC823FB6127
:100CE000E7E0744AFB69101C191C6422FFF792FFAD
:100CF000FFF7F4FD6423FB61DBE06E4AFB69101C27
:100D0000191C0022FFF786FFFFF7E8FD0023FB61B7
:100D1000CFE06849FA6996235B00081C111C1A1C75
:100D2000FFF778FFFFF7DAFD96235B00FB61C0E079
:100D3000604B181C32210122FFF7AEFDFFF7CEFDFC
:100D4000FB693233181CC823590000F005F90B1C4D
:100D5000FB61AEE059495A4A01235B42081C111C51
:100D60001A1CFFF799FDC046564B181CFFF756FE9C
:100D7000031C002B06D1544B181CFFF74FFE031C1D
:100D8000002BF1D0FFF7B6FD01237B614B494C4AA4
:100D900001235B42081C111C1A1CFFF77DFDC04695
:100DA000484B181CFFF73AFE031C002B06D1464B9C
:100DB000181CFFF733FE031C002BF1D0FFF79AFD40
:100DC000414B181CFFF72AFE031C002B52D10023B5
:100DD0003B617B69012B04D15A233B6100237B617A
:100DE00001E000233B61BB69002B22D1FFF7C2FE6B
:100DF000031C303BBB60BB68042B4AD0BA6801239C
:100E0000134003D0BB686422534305E0BB689A1CBF
:100E100003231340642253437B602649FA697B68AD
:100E2000081C111C1A1CFFF7F5FEFFF757FD7B6825
:100E3000FB613B691A1CF532244901235B42081C03
:100E4000111C1A1CFFF728FDFFF748FDBB69012B99
:100E500007D10320FFF748FEFC1CFFF78BFE031CA5
:100E60002370164B181C14210122FFF715FDFFF704
:100E700035FD8BE71549FA235A0001235B42081C14
:100E8000111C1A1CFFF708FD0023BB61FFF726FDAC
:100E900000E0C0460DE0094B5A6B084BDB6BD31AE0
:100EA000064A101C191C0122FFF7F6FCFFF716FD7D
:100EB000C046F8E64C000010B00F0000A40000107F
:100EC000102700008C000010E40000100C0000103F
:100ED000002934D00123002210B488422CD30124ED
:100EE0002407A14204D2814202D209011B01F8E782
:100EF000E400A14204D2814202D249005B00F8E73B
:100F0000884201D3401A1A434C08A04202D3001B66
:100F10005C0822438C08A04202D3001B9C08224399
:100F2000CC08A04202D3001BDC082243002803D0D7
:100F30001B0901D00909E3E7101C10BC7047002809
:100F400001D00020C04307B4024802A1401802901B
:100F500003BDC046190000000029F0D003B5FFF71B
:100F6000B9FF0EBC4243891A1847C0467047C046B5
:100F70005E0200006C0200007A020000880200009D
:100F800096020000A4020000B2020000C0020000AD
:100F9000F0020000FE0200000C0300001A03000033
:100FA0002803000036030000440300005203000041
:100FB000CA0C0000E20C0000FA0C0000120D000048
:100FC000300D0000A60C0000A60C0000A60C0000CE
:100FD000A60C0000A60C0000A60C0000A60C000049
:100FE000A60C0000A60C0000A60C0000A60C000039
:100FF000A60C0000A60C0000A60C0000A60C000029
:10100000960E0000A60C0000A60C0000A60C000026
:10101000A60C0000A60C0000A60C0000A60C000008
:10102000A60C0000A60C0000A60C0000A60C0000F8
:10103000A60C0000A60C0000A60C0000A60C0000E8
:08104000A60C0000540D000095
:04000003000000C039
:00000001FF
