:100000000020001019010000A5010000A50100005A
:1000100000000000000000000000000000000000E0
:10002000000000000000000000000000A50100002A
:100030000000000000000000A5010000A501000074
:10004000A5010000A5010000A5010000A501000018
:10005000A5010000A5010000A5010000A501000008
:10006000A5010000A5010000A5010000A5010000F8
:10007000A5010000A5010000A5010000A5010000E8
:10008000410A0000A5010000A5010000A501000033
:10009000A5010000A5010000A5010000A5010000C8
:1000A000A5010000A5010000A5010000A5010000B8
:1000B000A5010000A5010000A5010000A5010000A8
:1000C00080B500AF00F028F8BD4680BD80B500AF18
:1000D0000B4B00221A600B4B23221A600A4B0A4A70
:1000E000126880218A431A60084B01221A60084B6B
:1000F00003221A60074B01221A60BD4680BDC0462C
:100100004080044008800440388204404480044019
:10011000708004407480044080B584B000AF1C4BF4
:10012000FB601C4BBB601C4A1A4BD31A7B6009E076
:10013000FB681A78BB681A70BB680133BB60FB6848
:100140000133FB607B685A1E9341DBB27A68013A47
:100150007A60002BECD1114BBB60114A0F4BD31AC4
:100160007B6005E0BB6800221A70BB680133BB608E
:100170007B685A1E9341DBB27A68013A7A60002BA1
:10018000F0D1FFF7A3FF00F001FDBD4604B080BD34
:10019000CC1700000000001000000010000000104C
:1001A000FC00001080B500AFFEE7C04680B584B00B
:1001B00000AF3B1D186059609A603B1D9B68002B87
:1001C00009D13B1D5B683A1D526811683A1D1268DF
:1001D0000A431A6009E03B1D5B683A1D52681168CA
:1001E0003A1D1268D2430A401A60C046BD4604B0A8
:1001F00080BDC04680B584B000AF3B1D186059601B
:100200009A603B1D9B68002B0AD13B1D5B683A1D21
:10021000526811683A1D1268D2430A401A6008E019
:100220003B1D5B683A1D526811683A1D12680A430B
:100230001A60C046BD4604B080BDC04680B582B0DD
:1002400000AF786039603B68002B48DD7B689B6BB2
:10025000072B3CD89A00484BD3181B689F467B68F5
:10026000D86819695A69FFF7A1FF30E07B68186800
:1002700059689A68FFF7BEFF29E07B689869D969D9
:100280001A6AFFF793FF22E07B68D86819695A69F8
:10029000FFF7B0FF1BE07B68586A996ADA6AFFF7DC
:1002A00085FF14E07B689869D9691A6AFFF7A2FF95
:1002B0000DE07B68186859689A68FFF777FF06E0D9
:1002C0007B68586A996ADA6AFFF794FFC0467B68D0
:1002D0009B6B5A1C07231A407B689A6347E07B6834
:1002E0009B6B072B3CD89A00244BD3181B689F4666
:1002F0007B68586A996ADA6AFFF758FF30E07B68D2
:10030000D86819695A69FFF775FF29E07B68186892
:1003100059689A68FFF74AFF22E07B689869D969B3
:100320001A6AFFF767FF1BE07B68D86819695A698A
:10033000FFF73CFF14E07B68586A996ADA6AFFF7B6
:1003400059FF0DE07B689869D9691A6AFFF72EFF9B
:1003500006E07B68186859689A68FFF74BFFC0464B
:100360007B689B6BDA1D07231A407B689A63C04643
:10037000BD4602B080BDC0468C170000AC1700001F
:1003800080B584B000AFF860B9607A6000F09EF983
:10039000FB68181C00F00CF8BB68181C00F090F803
:1003A0007B68181C00F008F9C046BD4604B080BD4B
:1003B00080B582B000AF7860364B00221A60364BB1
:1003C00000221A60354B00221A60354B00221A6059
:1003D000344B344A1268C0210A431A60324B324A05
:1003E0001268802189000A431A60304B2F4A126834
:1003F00020210A431A607B6820221A607B682C4AFD
:100400005A607B684022DA607B682A4A1A617B68FE
:1004100080229A617B68274ADA617B688022920099
:100420005A627B68244A9A627B68244A1A637B6812
:10043000C82292005A637B6800229A637B6800227C
:100440009A607B6800225A617B6800221A627B688E
:100450000022DA627B68186859689A68FFF7A6FE7E
:100460007B68D86819695A69FFF7C4FE7B68986988
:10047000D9691A6AFFF7BEFE7B68586A996ADA6A18
:10048000FFF7B8FE7B680022DA63C046BD4602B0C3
:1004900080BDC046484004404C40044050400440A9
:1004A00054400440008000500080025000800350FF
:1004B000FC3F0350FC3F0050FC3F02503C55000005
:1004C00080B582B000AF7860324B00221A60324BA8
:1004D00000221A60314B00221A60314B00221A6050
:1004E000304B304A126838210A431A602E4B2E4A8C
:1004F000126802210A431A607B6802221A607B6834
:100500002A4A5A607B680822DA607B68284A1A61A6
:100510007B6810229A617B68254ADA617B68202219
:100520005A627B68224A9A627B68224A1A637B6815
:10053000C82292005A637B6800229A637B6800227B
:100540009A607B6800225A617B6800221A627B688D
:100550000022DA627B68186859689A68FFF726FEFD
:100560007B68D86819695A69FFF744FE7B68986907
:10057000D9691A6AFFF73EFE7B68586A996ADA6A97
:10058000FFF738FE7B680022DA63C046BD4602B042
:1005900080BDC046284004402C4004403040044008
:1005A000344004400080005000800250FC3F025064
:1005B000FC3F00503C55000080B582B000AF786031
:1005C000374B00221A60374B00221A60364B00224C
:1005D0001A60364B00221A60354B354A12680421E6
:1005E0000A431A60334B334A1268802149000A4398
:1005F0001A60314B304A1268C02149000A431A6020
:100600007B68802252001A607B682C4A5A607B68A3
:100610000422DA607B682A4A1A617B6880229A6128
:100620007B68284ADA617B68802252005A627B68C4
:10063000244A9A627B68244A1A637B68C822920023
:100640005A637B6800229A637B6800229A607B6809
:1006500000225A617B6800221A627B680022DA62FB
:100660007B68186859689A68FFF7A0FD7B68D868AE
:1006700019695A69FFF7BEFD7B689869D9691A6ADA
:10068000FFF7B8FD7B68586A996ADA6AFFF7B2FD2E
:100690007B680022DA63C046BD4602B080BDC0461A
:1006A000144004401C4004402040044024400440C6
:1006B000008000500080015000800250FC3F01503B
:1006C000FC3F0050FC3F02508813000080B500AF93
:1006D0000F4B0F4A126880210A431A600D4B1422F7
:1006E0001A600D4B03221A600C4B0D4A1A600D4B19
:1006F00000221A600C4B00221A600C4B02221A6076
:100700000B4B802252021A60C046BD4680BDC046D7
:10071000808004400CC0004014C0004018C000405D
:100720003C55000028C0004070C0004004C000409C
:1007300000E100E080B500AF024B01221A60C04624
:10074000BD4680BD04C0004080B500AF024B022210
:100750001A60C046BD4680BD04C0004080B500AFF1
:10076000094B094A1268802109010A431A60074BA4
:1007700000221A60064B064A1268802109010A43CA
:100780001A60C046BD4680BD0080025070400440E3
:10079000FC3F025080B500AF114B114A1268802116
:1007A00049020A431A600F4B0E4A12688021090160
:1007B0000A431A600C4B0C4A126807218A431A60DC
:1007C000094B094A126801210A431A60074B074A7C
:1007D0001268802109010A431A60C046BD4680BDE7
:1007E000808004400080005074400440FC3F005072
:1007F00080B500AF1E4B1E4A12681E490A431A609C
:100800001D4B1D4A126807218A431A601A4B1A4A67
:10081000126801210A431A60184B184A126807210E
:100820008A431A60154B154A126801210A431A605F
:100830000F4B0F4A1268802149010A431A60104B7E
:1008400004221A600F4B83221A600F4B04221A6095
:100850000E4B85221A600E4B00221A60094B0322B0
:100860001A600C4B07221A60C046BD4680BDC046C8
:100870008080044040000100A4400440A84004409F
:10088000988004400C800040008000402880004098
:10089000048000400880004080B584B000AFF8605C
:1008A000B9607A60094BFA68126B1A60084BBA6833
:1008B0001A60084B7A681A60074BFA681A60FFF7EB
:1008C00039FFC046BD4604B080BDC04618C00040D8
:1008D00008000010040000100000001080B500AFF8
:1008E000C046034B1B68002BFBD1C046BD4680BDF4
:1008F0000000001080B500AF044B00221A60044BCA
:1009000000221A60C046BD4680BDC04608000010E7
:100910000000001080B582B000AF7860184B002254
:100920001A60184B174A1268802149000A431A605E
:100930007B68802252001A607B68134A5A607B6889
:1009400000229A607B68186859689A68FFF72EFC45
:100950000E4B08221A600B4B0A4A11680C4A0A40D7
:100960001A607B6880229200DA607B68064A1A610E
:100970007B6800225A61C046BD4602B080BDC046B9
:100980006040044000800050FC3F00506440044040
:10099000FFFDFFFF80B582B000AF7860184B0122E9
:1009A0001A60184B174A12688021C9000A431A605E
:1009B0007B688022D2001A607B68134A5A607B6889
:1009C00000229A607B68186859689A68FFF7EEFB06
:1009D0000E4B88221A600E4B0D4A11680D4A0A40D0
:1009E0001A607B688022D200DA607B680A4A1A614A
:1009F0007B6800225A61C046BD4602B080BDC04639
:100A00006840044000800050FC3F00506C400440AF
:100A100000800150FFFBFFFFFC3F015080B582B01A
:100A200000AF78607B681B691A687B68DB681340DD
:100A30005A1E9341DBB2181CBD4602B080BDC046B1
:100A400080B500AF124B1B68002B05D1FFF77CFE71
:100A5000104B00221A6015E00E4B1A680E4B1B68F3
:100A6000101C191CFFF7EAFB094B1B685A1E084BA8
:100A70001A60084B1B68074A1268D16B064A126855
:100A80008A18DA63054B01221A60C046BD4680BD54
:100A900008000010000000100400001000C000401A
:100AA00080B500AF0E490F4A0F4B081C111C1A1CD1
:100AB000FFF766FC0D4B00221A600D4B00221A60F6
:100AC000FFF74CFEFFF766FEFFF792FE094B181C7E
:100AD000FFF720FF084B181CFFF75CFFBD4680BDE9
:100AE0004C000010A40000100C00001000000010CA
:100AF000080000108C000010E400001080B586B0E3
:100B000000AF786000237B6116E000233B610CE0BE
:100B10000023FB6002E0FB680133FB60FA680A4BCC
:100B20009A42F8DD3B6901333B613A69074B9A42CF
:100B3000EEDD7B6901337B617B691A1C7B689A421D
:100B4000E3D3BD4606B080BD1F4E0000F301000098
:100B500080B500AF044B044A1168044A0A401A6089
:100B6000C046BD4680BDC046FC3F0250FFF7FFFFB8
:100B700080B500AF044B044A1268802109010A4382
:100B80001A60C046BD4680BDFC3F025098B500AF1C
:100B9000FFF786FF364B181C02210122FFF77CFE6F
:100BA000FFF79CFE3349344A01235B42081C111CA9
:100BB0001A1CFFF771FEC046304B181CFFF72EFFC2
:100BC000031C002B06D12E4B181CFFF727FF031C1C
:100BD000002BF1D0FFF78EFE294B181CFFF71EFFEC
:100BE000031C002B0CD1274A01235B42101CCB2194
:100BF0001A1CFFF751FEFFF771FEFFF76FFED1E7FA
:100C0000204A01235B42101CCB211A1CFFF744FE33
:100C1000FFF764FEC046164B181C32210122FFF775
:100C20003BFEFFF75BFE134BDB6B181C00F002FC76
:100C3000031C0C1C181C211C00F026F8021C0D4B78
:100C4000DB6B002B01D0012301E001235B4209494A
:100C5000081C111C1A1CFFF71FFEFFF73FFE044B78
:100C6000181C32210122FFF717FEFFF737FE99E724
:100C70004C000010A4000010102700008C00001091
:100C8000E40000100C00001038B50E4B0C4A041C98
:100C90000D1C00F035FC002804D1201C291C00F09C
:100CA00095FB38BD074B064A201C291C00F00CF8A8
:100CB00000F08CFB802319064018F2E7C046C046BE
:100CC000000000000000E041F0B557464E464546A2
:100CD000E0B4071C0D034E00680ACC0F790F0843DF
:100CE0008446111C18035A00FD00400ADF0F4B0F09
:100CF0001843CA4BC900760D520D8A469A4200D15C
:100D0000E0E001235F40B946BC4200D1A8E0B71A39
:100D1000002F00DC10E1002A12D15246024300D11C
:100D2000D4E0013F002F00D060E151466F1ABD4270
:100D3000AD4162466B42101A3D1CC31A371C24E0B9
:100D4000B64A964200D1E3E080210B041843382FC5
:100D500000DD23E11F2F00DD66E12021C91B021CFD
:100D600053468A40FB401A4353468B40191C4B1E86
:100D70009941031C0A43FB40AA1A67469542AD41BC
:100D8000F81A6B42C31A151C371C1A0200D4C7E0AC
:100D90005E02710A88464246002A00D1F0E04046D1
:100DA00000F0B8FB021C083A1F2A00DDF1E02823FE
:100DB000181A2E1C4146C6409140331C0B439540E7
:100DC000974200DDA9E0D01B411C1F2900DD12E184
:100DD0001F273A1A2E1C181CCE40904095403043D5
:100DE0006A1E9541CB400543012100270F262E4066
:100DF000042E00D172E02E1DAE42AD416842802229
:100E00001B180125100418402C40002807D0834FE0
:100E1000B94200D1B0E0824A0F1C13400131F20800
:100E200049055E073243DB08480D012800DC79E004
:100E30001B0378051E0B470D00200021090D7D05C1
:100E40000B05784F1E43101C37406A0817437E007D
:100E50007108E40721431CBC90469946A246F0BDA8
:100E6000B31A002B00DCA6E0002A3ED06B4A964263
:100E70004ED080210F043843382B00DC18E1534654
:100E8000184300270022002800D001225219AA424C
:100E9000AD4167446B42FB18151C371C1E023FD541
:100EA0005E487E1C864200D17BE15D4901222A40DA
:100EB0000B406808151CD90705430D435B08B91C96
:100EC000371C93E7014300D11BE71CE7711C371C5B
:100ED0000F2663462E40042E00D08CE78022012688
:100EE0001004344018402E1C8FE752460243EDD0C8
:100EF000013B002B09D157467919A942924155422D
:100F000060444319371C0D1CC8E744498E42B3D1D5
:100F1000802063460101371C68E7BF1A404A13402E
:100F2000791C63E7151C1D4300D121E2002F3ED040
:100F3000802631030B437BE7002F00D086E0721C34
:100F400051054B0D012B00DCF0E05746EA1B9542A2
:100F50009B416746391A5B42C91A88460B0200D486
:100F60009DE05446651BAA459241C01B5742C31BD6
:100F70009846371C4C460EE70F1C002600225BE704
:100F8000281C00F0C7FA2030021C083A1F2A00DC97
:100F90000DE7283885402B1C002511E757463843BC
:100FA00000230022002800D1E6E60122E4E61D032A
:100FB0002E0B002740E7002B00D0D9E0771C7905E5
:100FC0004A0D012A00DC95E0144B9F4200D1FEE05F
:100FD00051464919A942AD4162466B428018C21878
:100FE0004908D5070D435308B11CFFE60B498E4253
:100FF00000D0ACE68CE7061C1F3E1F1CF7403E1CD1
:10100000202973D03F22101A83401D436B1E9D413F
:101010003543012100230027E8E6C046FF07000012
:10102000FFFF7FFFFFFF0F803B1C203B011CD940CF
:101030000B1C202F5CD04022D71BB840021C50460E
:101040000243511E8A411A43002395E67F42002E37
:1010500040D0CA4CA24200D11FE1802166460B0459
:101060001E43B446382F00DDA9E01F2F00DD3DE10F
:101070002023DE1B291C6446B440F940B5406B1E9A
:101080009D41214363460D43FB4057467D1BC01ADB
:10109000AA459B415F42C31B4C46171C75E60D1CBD
:1010A000154320D100240121002304260027B6E6A1
:1010B0001F2B4ADC2021C91A071C52468F40DA40F8
:1010C0003A4357468F40391C4F1EB941D8400A4316
:1010D000071CDBE664462C4369D1511C031C5546B2
:1010E000171C4C4682E6151C371C54E600238CE77F
:1010F0000022A4E767462F43002E00D0D4E0002F43
:1011000000D126E15346034300D1E4E051464F1994
:10111000AF42AD4160446E4283191E0200D44EE1DD
:1011200097483D1C0340022101275FE661462943A1
:10113000002E29D1002976D151460143B2D0031C9B
:1011400055464C460121002750E61F1C203F011C3C
:10115000F9400F1C202B00D1C6E04022D31A984042
:10116000021C50460243531E9A413A4300278DE623
:101170005B42002E30D167462F4300D0C8E0511C9F
:10118000031C5546171C31E6002965D15746074315
:1011900000D1C8E0031C802055464C460101774F22
:1011A00024E68023371C19010426002337E6013F7B
:1011B000002F6ED154466146651B401A68E76746AA
:1011C0003D430023002D00D15FE701255DE7802628
:1011D00031010023042622E668498A4200D1C1E099
:1011E0008027664639040E43B446382B00DDA2E062
:1011F0001F2B00DDD0E02021C91A2E1C67468F402E
:101200008D40DE403E43291C67464D1EA941DF400C
:10121000351C0D433E1C554455459B4130185E42DC
:101220008319171C3AE65646064354D05746EA1B24
:1012300063469542B641191A7342CB1A1E0200D476
:10124000A2E07D1B6446AA45BF41001B7A42831A77
:101250004C4601210027C9E5564606433FD0624669
:1012600080215707ED08D3080A033D43134208D0F5
:10127000C608164205D15546EC0845072543331CE0
:101280004C46680FDB0080260343ED0031013B4FE5
:10129000ACE53A498A4200D0E4E68026031C554674
:1012A0004C463101171CA1E5002F4CD05346034397
:1012B00015D062468026ED085107D30837030D4349
:1012C0003B42DED0C2083A42DBD15546E908450729
:1012D000131C0D43D5E763460121002786E58027CF
:1012E00039016346254F81E500223AE73C1C203C4A
:1012F0006646E640331C202F5FD04024E71B66463D
:10130000BE40311C0D43691E8D411D430023BCE6C8
:10131000013B002B22D155445545BF417B426044DF
:10132000C318171CBAE58021042200240901154BBB
:101330005642124F73E563461D430026002D00D12F
:1013400069E7012567E78022031C554611010B4F11
:101350004CE5031C55460121002747E507498A4211
:1013600000D042E78021031C55460901171C3DE5CA
:101370007F057F0D002600225EE5C046FF070000C6
:10138000FFFF7FFFFFFF7F001D1C154300D189E693
:10139000151C0121002729E51F1C203F6146F9404B
:1013A000202B10D04026F31A67469F403B1C1D435C
:1013B0006B1E9D410D4300262DE70021A2E73D1C39
:1013C0000121002712E50023F1E7C046134A0B0371
:1013D00030B5051C48001C0BC90F430D002093427B
:1013E00011DD0F4883420FDC802250030D4A044375
:1013F000D01A1F280BDD0C4DEB1ADC40221C50428A
:10140000002900D1101C30BD084C0819FBE7C5406D
:1014100007482A1C1D18AC402243F0E7FE030000D9
:101420001D0400003304000013040000FFFFFF7FD1
:10143000EDFBFFFF70B5041E26D000F06BF81449D9
:101440000A1A0A2813DD0B38844056052403720D4E
:10145000250B002600200021301C0E0D33050D4CFD
:101460002B4311051C400C436500690870BD0B231C
:10147000051C181A1535211CC440A9405205250326
:101480000E1C2D0B520DE5E7002200250026E1E79A
:101490001E040000FFFF0F808446101C62468C462D
:1014A000191C634600E0C0461FB500F003F9002890
:1014B00001D40021C8421FBD10B500F049F84042D8
:1014C000013010BD10B500F0F5F8002801DB002058
:1014D00010BD012010BDC04610B500F0EBF800288B
:1014E00001DD002010BD012010BDC04610B500F088
:1014F0006DF8002801DC002010BD012010BDC046A1
:1015000010B500F063F8002801DA002010BD0120BA
:1015100010BDC0461C2101231B04984201D3000CBE
:1015200010391B0A984201D3000A08391B09984256
:1015300001D30009043902A2105C40187047C0466C
:10154000040302020101010100000000000000008C
:10155000F0B5944647461A03061C580080B4170B92
:10156000420D19480D034C00DB0F2D0B640DC90F04
:101570009846844208D0144882420DD001209442FB
:1015800012D004BC9046F0BD2B1C33430120002B2D
:10159000F7D10D488242F1D163463B430120002B35
:1015A000EFD101209442ECD1BD42EAD16645E8D1A9
:1015B000414506D0002CE4D1281C3043451EA841EB
:1015C000DFE70020DDE7C046FF070000F0B5574623
:1015D0004E464546E0B4041C4E000803C90F8A4637
:1015E000171C59001A03050B700D160B4A0D3049D4
:1015F000DB0F9C46884232D02D498A4235D00028E4
:101600000FD1291C21434B424B419846002A0BD055
:10161000002B1AD1E2452CD05546002D18D10120BF
:1016200018E0002AF6D19046311C39434B424B4119
:101630004146002906D1002BECD056460120002E51
:1016400008D005E00020002B04D16746002FE6D12A
:10165000012358421CBC90469946A246F0BD2B1C63
:101660002343C9D002214842F4E7331C3B43C6D090
:10167000F8E7904205DC09DA5246002AE8D001205A
:10168000E8E75446002CE3D10120E3E7B542C3D894
:1016900007D00020B542DDD250460028D8D0012026
:1016A000D8E7BC42B8D80020BC42F5D3D2E7C04648
:1016B000FF070000F0B544465F4656464D46F0B47D
:1016C0009446061C1A035800170B420D2E480D03B2
:1016D0004C00DB0F2D0B640DC90F9846844233D0AC
:1016E0002948824236D0002C19D0002A20D19346B6
:1016F00063463B43584258415B468246002B1DD00F
:1017000051460020002904D14246002A14D1012468
:1017100060423CBC90469946A246AB46F0BD2B1CAD
:101720003343584243419B46002AE1D0002BEBD182
:10173000414515D00029EAD10120EAE70028F7D079
:1017400001200029E5D0E2E72B1C33430220002BC7
:10175000DFD1C5E763463B430220002BD9D1C2E766
:101760009442E7DC05DBBD42E4D806D00020BD4250
:10177000CFD20029CBD00120CBE76645DAD80020B4
:0C1780006645F6D3C5E7C046FF07000031
:10178C005E0200006C0200007A0200008802000079
:10179C0096020000A4020000B2020000C002000089
:1017AC00F0020000FE0200000C0300001A0300000F
:1017BC00280300003603000044030000520300001D
:04000003000000C039
:00000001FF
